:100000000C9435000C94ED000C945D000C945D0094
:100010000C945D000C945D000C945D000C945D00EC
:100020000C945D000C945D000C945D000C945D00DC
:100030000C945D000C945D000C945D000C945D00CC
:100040000C945D000C945D000C945D000C945D00BC
:100050000C945D000C945D000C945D000C945D00AC
:100060000C945D000C945D007E0211241FBECFEF46
:10007000D8E0DEBFCDBF11E0A0E0B1E0ECE2F5E0FA
:1000800002C005900D92A430B107D9F711E0A4E0A9
:10009000B1E001C01D92A331B107E1F710E0CAE65B
:1000A000D0E004C02297FE010E949002C836D1071A
:1000B000C9F70E9486010C9494020C940000CF931F
:1000C000DF9320910B0130910C0140910D01509173
:1000D0000E0162E070E01BC0DA01C901837090700C
:1000E000A070B0700097A105B10559F4DA01C901FB
:1000F00085709070A070B0700097A105B10509F4EB
:1001000069C056954795379527956F5F7F4F8091CA
:100110000F0190E068177907FCF2E0E060E070E022
:1001200040E050E0C1E0D0E0F1E023C080910B015D
:1001300090910C01A0910D01B0910E019A01220F36
:10014000331F04C0B695A795979587952A95D2F742
:1001500080FF0DC0CE01042E02C0880F991F0A94A3
:10016000E2F7682B792B4115510509F0EF274F5F16
:100170005F4F80910F01869590E048175907B4F2C0
:100180002E2F30E0CB01817090702817390711F5C0
:100190009B0136952795C90180709F70933091F02F
:1001A000943028F4913041F09230A1F408C094309A
:1001B00061F0953079F40CC0209306010BC02093B8
:1001C000070108C02093080105C02093090102C05F
:1001D00020930A01DF91CF9108951F920F920FB6DD
:1001E0000F9211242F933F934F938F939F93AF932D
:1001F000BF9380911001813009F07CC02091840070
:10020000309185008091110190911201281B390BCA
:100210002031310508F46EC08091840090918500F2
:100220009093120180931101C901895E9340835814
:10023000934080F54A9B10C080910B0190910C0176
:10024000A0910D01B0910E0122E0880F991FAA1F05
:10025000BB1F2A95D1F712C080910B0190910C0120
:10026000A0910D01B0910E0142E0880F991FAA1FC5
:10027000BB1F4A95D1F70396A11DB11D80930B01B9
:1002800090930C01A0930D01B0930E0180910F018A
:100290008E5F2EC0235C31402552324058F54A9B78
:1002A0000DC080910B0190910C01A0910D01B091B6
:1002B0000E01880F991FAA1FBB1F0FC080910B0151
:1002C00090910C01A0910D01B0910E01880F991F22
:1002D000AA1FBB1F0196A11DB11D80930B01909316
:1002E0000C01A0930D01B0930E0180910F018F5F5F
:1002F00080930F01BF91AF919F918F914F913F914B
:100300002F910F900FBE0F901F9018950F931F9372
:100310001AB81BB814B884B1886284B985B18862F0
:1003200085B91092800082E08093810080916900FD
:10033000816080936900E89A8AB188668AB984B539
:10034000836084BD85B5826085BD8BB18BB917BCD8
:1003500018BC8091B00083608093B0008091B100A0
:1003600082608093B1002B9A1092B300F89410E051
:1003700001E080911001813039F480910F018C31BE
:10038000C1F710921001F894F89480910F018C310C
:1003900009F06FC00E945F0010920F0110920B01D4
:1003A00010920C0110920D0110920E0180910B0120
:1003B00090910C01A0910D01B0910E01809310015C
:1003C00080910601882309F454C0309107012091DF
:1003D000080140910901822F830F840F90910A0137
:1003E0009817E9F5222329F484B58F7784BD5E98A8
:1003F0000BC02F3F29F484B58F7784BD5E9A04C06B
:1004000084B5806884BD27BD332329F484B58F7DEE
:1004100084BD5D980BC03F3F29F484B58F7D84BDBA
:100420005D9A04C084B5806284BD38BD442339F42C
:100430008091B0008F778093B0002B9810C04F3F11
:1004400039F48091B0008F778093B0002B9A07C069
:100450008091B00080688093B0004093B300109208
:100460000A011092060110920901109208011092DF
:1004700007014A9B04C01123F9F011E07ACF113033
:1004800011F410E01AC010E074CF261B370B2417AC
:10049000350708F06ECF112309F06BCF10920B01D6
:1004A00010920C0110920D0110920E0110920F018A
:1004B0000093100178945DCF11E040918400509139
:1004C00085008091110190911201481B590B809178
:1004D00084009091850090931201809311012091E6
:1004E0000401309105016091020170910301CB017B
:1004F000820F931F4817590740F23BCF209100010C
:1005000030910101C901880F991F880F991F820F2F
:10051000931F90930501809304010895EE0FFF1F30
:0C0520000590F491E02D0994F894FFCFB1
:04052C00D0023C00BD
:00000001FF
